{
  "transactions": [
    {
      "hash": "0xcfaef7384a283d86c2db30b64b3ca7fbe4a10b3066ab7c75f6a9996b1d2e4e92",
      "transactionType": "CREATE",
      "contractName": "MockVelodromeFactory",
      "contractAddress": "0xdcb28a97e6c95b5100eed0cc4003ce13ec0c33e0",
      "function": null,
      "arguments": null,
      "transaction": {
        "from": "0xdb90cdb64cff03f254e4015c4f705c3f3c834400",
        "gas": "0x16df6f",
        "value": "0x0",
        "input": "0x60a0604052348015600e575f5ffd5b506040516019906042565b604051809103905ff0801580156031573d5f5f3e3d5ffd5b506001600160a01b0316608052604f565b610e548061057083390190565b6080516105096100675f395f61023001526105095ff3fe608060405234801561000f575f5ffd5b506004361061004a575f3560e01c806336bf95a01461004e5780635b16ebb71461007e57806379bc57d5146100b0578063cc56b2c5146100e8575b5f5ffd5b61006161005c366004610449565b61010f565b6040516001600160a01b0390911681526020015b60405180910390f35b6100a061008c366004610489565b60016020525f908152604090205460ff1681565b6040519015158152602001610075565b6100616100be366004610449565b5f60208181529381526040808220855292815282812090935282529020546001600160a01b031681565b6100fb6100f63660046104a2565b610366565b60405162ffffff9091168152602001610075565b5f826001600160a01b0316846001600160a01b0316036101425760405163367558c360e01b815260040160405180910390fd5b5f5f846001600160a01b0316866001600160a01b031610610164578486610167565b85855b90925090506001600160a01b0382166101935760405163d92e233d60e01b815260040160405180910390fd5b6001600160a01b038281165f9081526020818152604080832085851684528252808320881515845290915290205416156101e057604051630188c99160e11b815260040160405180910390fd5b6040516bffffffffffffffffffffffff19606084811b8216602084015283901b16603482015284151560f81b604882015261026690604901604051602081830303815290604052805190602001207f00000000000000000000000000000000000000000000000000000000000000006001600160a01b031661038090919063ffffffff16565b604051631c9776b560e31b81526001600160a01b038481166004830152838116602483015286151560448301529194509084169063e4bbb5a8906064015f604051808303815f87803b1580156102ba575f5ffd5b505af11580156102cc573d5f5f3e3d5ffd5b5050506001600160a01b039283165f81815260208181526040808320958716808452958252808320981515808452988252808320805497891673ffffffffffffffffffffffffffffffffffffffff19988916811790915595835282825280832093835292815282822097825296875281812080549095168417909455918352506001938490529020805460ff191690921790915592915050565b5f8161037357601e610376565b60055b60ff169392505050565b5f61038c5f8484610393565b9392505050565b5f6040517fcc3735a920a3ca505d382bbc545af43d6000803e6038573d6000fd5b3d6000f36060527f5155f3363d3d373d3d363d7f360894a13ba1a3210667c828492db98dca3e207660405261600960205283601e5268603d3d8160223d3973600a5282605f602187f59150816104115763301164255f526004601cfd5b6040525f6060529392505050565b80356001600160a01b0381168114610435575f5ffd5b919050565b80358015158114610435575f5ffd5b5f5f5f6060848603121561045b575f5ffd5b6104648461041f565b92506104726020850161041f565b91506104806040850161043a565b90509250925092565b5f60208284031215610499575f5ffd5b61038c8261041f565b5f5f604083850312156104b3575f5ffd5b6104bc8361041f565b91506104ca6020840161043a565b9050925092905056fea2646970667358221220d17c4faa8b725bafcde772d456650b84ed3b0cc936aa343cb7b9c7034adbaa6a64736f6c634300081d00336080604052348015600e575f5ffd5b50610e388061001c5f395ff3fe608060405234801561000f575f5ffd5b50600436106100b5575f3560e01c8063443cb4bc1161007d578063c5700a0211610058578063c5700a0214610180578063d21220a714610189578063e4bbb5a81461019c575f5ffd5b8063443cb4bc1461014e5780635a76f25e14610165578063c45a01551461016e575f5ffd5b8063022c0d9f146100b95780630902f1ac146100ce5780630dfe1681146100f7578063181783581461012257806322be3de11461012a575b5f5ffd5b6100cc6100c7366004610b1f565b6101af565b005b600354600454600554604080519384526020840192909252908201526060015b60405180910390f35b60015461010a906001600160a01b031681565b6040516001600160a01b0390911681526020016100ee565b6100cc6106fa565b60025461013e90600160a01b900460ff1681565b60405190151581526020016100ee565b61015760035481565b6040519081526020016100ee565b61015760045481565b5f5461010a906001600160a01b031681565b61015760055481565b60025461010a906001600160a01b031681565b6100cc6101aa366004610bad565b6107da565b841580156101bb575083155b156101d9576040516342301c2360e01b815260040160405180910390fd5b60035460045481871015806101ee5750808610155b1561020c5760405163bb55fd2760e01b815260040160405180910390fd5b6001546002545f9182916001600160a01b03918216919081169089168214806102465750806001600160a01b0316896001600160a01b0316145b1561026457604051630521f43160e31b815260040160405180910390fd5b8a1561027e5761027e6001600160a01b0383168a8d610925565b8915610298576102986001600160a01b0382168a8c610925565b861561030057604051639a7bff7960e01b81526001600160a01b038a1690639a7bff79906102d29033908f908f908e908e90600401610bf5565b5f604051808303815f87803b1580156102e9575f5ffd5b505af11580156102fb573d5f5f3e3d5ffd5b505050505b6040516370a0823160e01b81523060048201526001600160a01b038316906370a0823190602401602060405180830381865afa158015610342573d5f5f3e3d5ffd5b505050506040513d601f19601f820116820180604052508101906103669190610c41565b6040516370a0823160e01b81523060048201529094506001600160a01b038216906370a0823190602401602060405180830381865afa1580156103ab573d5f5f3e3d5ffd5b505050506040513d601f19601f820116820180604052508101906103cf9190610c41565b925050505f89856103e09190610c6c565b83116103ec575f610400565b6103f68a86610c6c565b6104009084610c6c565b90505f61040d8a86610c6c565b8311610419575f61042d565b6104238a86610c6c565b61042d9084610c6c565b90508115801561043b575080155b156104595760405163098fb56160e01b815260040160405180910390fd5b6001546002546001600160a01b0391821691168315610524575f5460025460405163cc56b2c560e01b8152306004820152600160a01b90910460ff1615156024820152610524916001600160a01b03169061271090829063cc56b2c590604401602060405180830381865afa1580156104d4573d5f5f3e3d5ffd5b505050506040513d601f19601f820116820180604052508101906104f89190610c7f565b6105079062ffffff1688610ca8565b6105119190610cbf565b6001546001600160a01b03169190610925565b82156105dc575f5460025460405163cc56b2c560e01b8152306004820152600160a01b90910460ff16151560248201526105dc916001600160a01b03169061271090829063cc56b2c590604401602060405180830381865afa15801561058c573d5f5f3e3d5ffd5b505050506040513d601f19601f820116820180604052508101906105b09190610c7f565b6105bf9062ffffff1687610ca8565b6105c99190610cbf565b6002546001600160a01b03169190610925565b6040516370a0823160e01b81523060048201526001600160a01b038316906370a0823190602401602060405180830381865afa15801561061e573d5f5f3e3d5ffd5b505050506040513d601f19601f820116820180604052508101906106429190610c41565b6040516370a0823160e01b81523060048201529096506001600160a01b038216906370a0823190602401602060405180830381865afa158015610687573d5f5f3e3d5ffd5b505050506040513d601f19601f820116820180604052508101906106ab9190610c41565b94506106b78888610991565b6106c18787610991565b10156106e05760405163a932492f60e01b815260040160405180910390fd5b505050600392909255600455505042600555505050505050565b6001546040516370a0823160e01b81523060048201526001600160a01b03909116906370a0823190602401602060405180830381865afa158015610740573d5f5f3e3d5ffd5b505050506040513d601f19601f820116820180604052508101906107649190610c41565b6003556002546040516370a0823160e01b81523060048201526001600160a01b03909116906370a0823190602401602060405180830381865afa1580156107ad573d5f5f3e3d5ffd5b505050506040513d601f19601f820116820180604052508101906107d19190610c41565b60045542600555565b600280546001600160a01b0380851673ffffffffffffffffffffffffffffffffffffffff19851515600160a01b02811674ffffffffffffffffffffffffffffffffffffffffff19909416939093171790925560018054928616928216831790555f8054909116331790556040805163313ce56760e01b8152905163313ce567916004808201926020929091908290030181865afa15801561087d573d5f5f3e3d5ffd5b505050506040513d601f19601f820116820180604052508101906108a19190610cde565b6108ac90600a610de1565b600681905550816001600160a01b031663313ce5676040518163ffffffff1660e01b8152600401602060405180830381865afa1580156108ee573d5f5f3e3d5ffd5b505050506040513d601f19601f820116820180604052508101906109129190610cde565b61091d90600a610de1565b600755505050565b604080516001600160a01b038416602482015260448082018490528251808303909101815260649091019091526020810180517bffffffffffffffffffffffffffffffffffffffffffffffffffffffff1663a9059cbb60e01b17905261098c908490610a8e565b505050565b6002545f90600160a01b900460ff1615610a7b576006545f906109bc85670de0b6b3a7640000610ca8565b6109c69190610cbf565b90505f60075484670de0b6b3a76400006109e09190610ca8565b6109ea9190610cbf565b90505f670de0b6b3a7640000610a008385610ca8565b610a0a9190610cbf565b90505f670de0b6b3a7640000610a208480610ca8565b610a2a9190610cbf565b670de0b6b3a7640000610a3d8680610ca8565b610a479190610cbf565b610a519190610def565b9050670de0b6b3a7640000610a668284610ca8565b610a709190610cbf565b945050505050610a88565b610a858284610ca8565b90505b92915050565b5f5f60205f8451602086015f885af180610aad576040513d5f823e3d81fd5b50505f513d91508115610ac4578060011415610ad1565b6001600160a01b0384163b155b15610afe57604051635274afe760e01b81526001600160a01b038516600482015260240160405180910390fd5b50505050565b80356001600160a01b0381168114610b1a575f5ffd5b919050565b5f5f5f5f5f60808688031215610b33575f5ffd5b8535945060208601359350610b4a60408701610b04565b9250606086013567ffffffffffffffff811115610b65575f5ffd5b8601601f81018813610b75575f5ffd5b803567ffffffffffffffff811115610b8b575f5ffd5b886020828401011115610b9c575f5ffd5b959894975092955050506020019190565b5f5f5f60608486031215610bbf575f5ffd5b610bc884610b04565b9250610bd660208501610b04565b915060408401358015158114610bea575f5ffd5b809150509250925092565b6001600160a01b038616815284602082015283604082015260806060820152816080820152818360a08301375f81830160a090810191909152601f909201601f19160101949350505050565b5f60208284031215610c51575f5ffd5b5051919050565b634e487b7160e01b5f52601160045260245ffd5b81810381811115610a8857610a88610c58565b5f60208284031215610c8f575f5ffd5b815162ffffff81168114610ca1575f5ffd5b9392505050565b8082028115828204841417610a8857610a88610c58565b5f82610cd957634e487b7160e01b5f52601260045260245ffd5b500490565b5f60208284031215610cee575f5ffd5b815160ff81168114610ca1575f5ffd5b6001815b6001841115610d3957808504811115610d1d57610d1d610c58565b6001841615610d2b57908102905b60019390931c928002610d02565b935093915050565b5f82610d4f57506001610a88565b81610d5b57505f610a88565b8160018114610d715760028114610d7b57610d97565b6001915050610a88565b60ff841115610d8c57610d8c610c58565b50506001821b610a88565b5060208310610133831016604e8410600b8410161715610dba575081810a610a88565b610dc65f198484610cfe565b805f1904821115610dd957610dd9610c58565b029392505050565b5f610ca160ff841683610d41565b80820180821115610a8857610a88610c5856fea2646970667358221220da0fa6e0a2015d0b4b97d0489a0ad32390e46ff9605cfac20a5041c4f79aa1a064736f6c634300081d0033",
        "nonce": "0x93",
        "chainId": "0x14a34"
      },
      "additionalContracts": [
        {
          "transactionType": "CREATE",
          "address": "0xcb3ca2fa896b052ebe56eda6808bacec7f3ebc37",
          "initCode": "0x6080604052348015600e575f5ffd5b50610e388061001c5f395ff3fe608060405234801561000f575f5ffd5b50600436106100b5575f3560e01c8063443cb4bc1161007d578063c5700a0211610058578063c5700a0214610180578063d21220a714610189578063e4bbb5a81461019c575f5ffd5b8063443cb4bc1461014e5780635a76f25e14610165578063c45a01551461016e575f5ffd5b8063022c0d9f146100b95780630902f1ac146100ce5780630dfe1681146100f7578063181783581461012257806322be3de11461012a575b5f5ffd5b6100cc6100c7366004610b1f565b6101af565b005b600354600454600554604080519384526020840192909252908201526060015b60405180910390f35b60015461010a906001600160a01b031681565b6040516001600160a01b0390911681526020016100ee565b6100cc6106fa565b60025461013e90600160a01b900460ff1681565b60405190151581526020016100ee565b61015760035481565b6040519081526020016100ee565b61015760045481565b5f5461010a906001600160a01b031681565b61015760055481565b60025461010a906001600160a01b031681565b6100cc6101aa366004610bad565b6107da565b841580156101bb575083155b156101d9576040516342301c2360e01b815260040160405180910390fd5b60035460045481871015806101ee5750808610155b1561020c5760405163bb55fd2760e01b815260040160405180910390fd5b6001546002545f9182916001600160a01b03918216919081169089168214806102465750806001600160a01b0316896001600160a01b0316145b1561026457604051630521f43160e31b815260040160405180910390fd5b8a1561027e5761027e6001600160a01b0383168a8d610925565b8915610298576102986001600160a01b0382168a8c610925565b861561030057604051639a7bff7960e01b81526001600160a01b038a1690639a7bff79906102d29033908f908f908e908e90600401610bf5565b5f604051808303815f87803b1580156102e9575f5ffd5b505af11580156102fb573d5f5f3e3d5ffd5b505050505b6040516370a0823160e01b81523060048201526001600160a01b038316906370a0823190602401602060405180830381865afa158015610342573d5f5f3e3d5ffd5b505050506040513d601f19601f820116820180604052508101906103669190610c41565b6040516370a0823160e01b81523060048201529094506001600160a01b038216906370a0823190602401602060405180830381865afa1580156103ab573d5f5f3e3d5ffd5b505050506040513d601f19601f820116820180604052508101906103cf9190610c41565b925050505f89856103e09190610c6c565b83116103ec575f610400565b6103f68a86610c6c565b6104009084610c6c565b90505f61040d8a86610c6c565b8311610419575f61042d565b6104238a86610c6c565b61042d9084610c6c565b90508115801561043b575080155b156104595760405163098fb56160e01b815260040160405180910390fd5b6001546002546001600160a01b0391821691168315610524575f5460025460405163cc56b2c560e01b8152306004820152600160a01b90910460ff1615156024820152610524916001600160a01b03169061271090829063cc56b2c590604401602060405180830381865afa1580156104d4573d5f5f3e3d5ffd5b505050506040513d601f19601f820116820180604052508101906104f89190610c7f565b6105079062ffffff1688610ca8565b6105119190610cbf565b6001546001600160a01b03169190610925565b82156105dc575f5460025460405163cc56b2c560e01b8152306004820152600160a01b90910460ff16151560248201526105dc916001600160a01b03169061271090829063cc56b2c590604401602060405180830381865afa15801561058c573d5f5f3e3d5ffd5b505050506040513d601f19601f820116820180604052508101906105b09190610c7f565b6105bf9062ffffff1687610ca8565b6105c99190610cbf565b6002546001600160a01b03169190610925565b6040516370a0823160e01b81523060048201526001600160a01b038316906370a0823190602401602060405180830381865afa15801561061e573d5f5f3e3d5ffd5b505050506040513d601f19601f820116820180604052508101906106429190610c41565b6040516370a0823160e01b81523060048201529096506001600160a01b038216906370a0823190602401602060405180830381865afa158015610687573d5f5f3e3d5ffd5b505050506040513d601f19601f820116820180604052508101906106ab9190610c41565b94506106b78888610991565b6106c18787610991565b10156106e05760405163a932492f60e01b815260040160405180910390fd5b505050600392909255600455505042600555505050505050565b6001546040516370a0823160e01b81523060048201526001600160a01b03909116906370a0823190602401602060405180830381865afa158015610740573d5f5f3e3d5ffd5b505050506040513d601f19601f820116820180604052508101906107649190610c41565b6003556002546040516370a0823160e01b81523060048201526001600160a01b03909116906370a0823190602401602060405180830381865afa1580156107ad573d5f5f3e3d5ffd5b505050506040513d601f19601f820116820180604052508101906107d19190610c41565b60045542600555565b600280546001600160a01b0380851673ffffffffffffffffffffffffffffffffffffffff19851515600160a01b02811674ffffffffffffffffffffffffffffffffffffffffff19909416939093171790925560018054928616928216831790555f8054909116331790556040805163313ce56760e01b8152905163313ce567916004808201926020929091908290030181865afa15801561087d573d5f5f3e3d5ffd5b505050506040513d601f19601f820116820180604052508101906108a19190610cde565b6108ac90600a610de1565b600681905550816001600160a01b031663313ce5676040518163ffffffff1660e01b8152600401602060405180830381865afa1580156108ee573d5f5f3e3d5ffd5b505050506040513d601f19601f820116820180604052508101906109129190610cde565b61091d90600a610de1565b600755505050565b604080516001600160a01b038416602482015260448082018490528251808303909101815260649091019091526020810180517bffffffffffffffffffffffffffffffffffffffffffffffffffffffff1663a9059cbb60e01b17905261098c908490610a8e565b505050565b6002545f90600160a01b900460ff1615610a7b576006545f906109bc85670de0b6b3a7640000610ca8565b6109c69190610cbf565b90505f60075484670de0b6b3a76400006109e09190610ca8565b6109ea9190610cbf565b90505f670de0b6b3a7640000610a008385610ca8565b610a0a9190610cbf565b90505f670de0b6b3a7640000610a208480610ca8565b610a2a9190610cbf565b670de0b6b3a7640000610a3d8680610ca8565b610a479190610cbf565b610a519190610def565b9050670de0b6b3a7640000610a668284610ca8565b610a709190610cbf565b945050505050610a88565b610a858284610ca8565b90505b92915050565b5f5f60205f8451602086015f885af180610aad576040513d5f823e3d81fd5b50505f513d91508115610ac4578060011415610ad1565b6001600160a01b0384163b155b15610afe57604051635274afe760e01b81526001600160a01b038516600482015260240160405180910390fd5b50505050565b80356001600160a01b0381168114610b1a575f5ffd5b919050565b5f5f5f5f5f60808688031215610b33575f5ffd5b8535945060208601359350610b4a60408701610b04565b9250606086013567ffffffffffffffff811115610b65575f5ffd5b8601601f81018813610b75575f5ffd5b803567ffffffffffffffff811115610b8b575f5ffd5b886020828401011115610b9c575f5ffd5b959894975092955050506020019190565b5f5f5f60608486031215610bbf575f5ffd5b610bc884610b04565b9250610bd660208501610b04565b915060408401358015158114610bea575f5ffd5b809150509250925092565b6001600160a01b038616815284602082015283604082015260806060820152816080820152818360a08301375f81830160a090810191909152601f909201601f19160101949350505050565b5f60208284031215610c51575f5ffd5b5051919050565b634e487b7160e01b5f52601160045260245ffd5b81810381811115610a8857610a88610c58565b5f60208284031215610c8f575f5ffd5b815162ffffff81168114610ca1575f5ffd5b9392505050565b8082028115828204841417610a8857610a88610c58565b5f82610cd957634e487b7160e01b5f52601260045260245ffd5b500490565b5f60208284031215610cee575f5ffd5b815160ff81168114610ca1575f5ffd5b6001815b6001841115610d3957808504811115610d1d57610d1d610c58565b6001841615610d2b57908102905b60019390931c928002610d02565b935093915050565b5f82610d4f57506001610a88565b81610d5b57505f610a88565b8160018114610d715760028114610d7b57610d97565b6001915050610a88565b60ff841115610d8c57610d8c610c58565b50506001821b610a88565b5060208310610133831016604e8410600b8410161715610dba575081810a610a88565b610dc65f198484610cfe565b805f1904821115610dd957610dd9610c58565b029392505050565b5f610ca160ff841683610d41565b80820180821115610a8857610a88610c5856fea2646970667358221220da0fa6e0a2015d0b4b97d0489a0ad32390e46ff9605cfac20a5041c4f79aa1a064736f6c634300081d0033"
        }
      ],
      "isFixedGasLimit": false
    },
    {
      "hash": "0x27e49b677922c4d7dcad5a58da042d60f80e68ea2c411c87ad1629c73239f985",
      "transactionType": "CREATE",
      "contractName": "MockSwapper",
      "contractAddress": "0xe4f8c9904a79ebd88ff73ed3f86a3cfd1b489edf",
      "function": null,
      "arguments": [
        "0xDcB28a97e6c95b5100EED0CC4003ce13EC0c33e0"
      ],
      "transaction": {
        "from": "0xdb90cdb64cff03f254e4015c4f705c3f3c834400",
        "gas": "0x1054ac",
        "value": "0x0",
        "input": "0x60a060405234801561000f575f5ffd5b50604051610ea5380380610ea583398101604081905261002e9161003f565b6001600160a01b031660805261006c565b5f6020828403121561004f575f5ffd5b81516001600160a01b0381168114610065575f5ffd5b9392505050565b608051610dea6100bb5f395f8181608401528181610129015281816101bc015281816103a60152818161043901528181610501015281816105940152818161076a01526107fd0152610dea5ff3fe608060405234801561000f575f5ffd5b5060043610610055575f3560e01c80631000fd6e146100595780633e8c6e431461007f578063a287c795146100be578063f873ebe0146100d1578063ff9c8ac6146100e4575b5f5ffd5b61006c610067366004610b9f565b6100f7565b6040519081526020015b60405180910390f35b6100a67f000000000000000000000000000000000000000000000000000000000000000081565b6040516001600160a01b039091168152602001610076565b61006c6100cc366004610bfa565b610374565b61006c6100df366004610b9f565b6104cf565b61006c6100f2366004610bfa565b610738565b6040516379bc57d560e01b81526001600160a01b03868116600483015284811660248301525f604483018190529182917f000000000000000000000000000000000000000000000000000000000000000016906379bc57d590606401602060405180830381865afa15801561016e573d5f5f3e3d5ffd5b505050506040513d601f19601f820116820180604052508101906101929190610c39565b60405163cc56b2c560e01b81526001600160a01b0380831660048301525f602483018190529293507f0000000000000000000000000000000000000000000000000000000000000000169063cc56b2c590604401602060405180830381865afa158015610201573d5f5f3e3d5ffd5b505050506040513d601f19601f820116820180604052508101906102259190610c5b565b90506001600160a01b038089169087161161024783878362ffffff8616610888565b93508784111561026a5760405163098fb56160e01b815260040160405180910390fd5b61027f6001600160a01b038a16338587610985565b826001600160a01b031663022c0d9f82610299578761029b565b5f5b836102a6575f6102a8565b885b6040516001600160e01b031960e085901b168152600481019290925260248201526001600160a01b0388166044820152608060648201525f608482015260a4015f604051808303815f87803b1580156102ff575f5ffd5b505af1158015610311573d5f5f3e3d5ffd5b50505f8054925090508061032483610c91565b909155506040517f38eee76fd911eabac79da7af16053e809be0e12c8637f156e77e1af309b99537906103609088908d908c908a908d90610ca9565b60405180910390a250505095945050505050565b6040516379bc57d560e01b81526001600160a01b03848116600483015282811660248301525f604483018190529182917f000000000000000000000000000000000000000000000000000000000000000016906379bc57d590606401602060405180830381865afa1580156103eb573d5f5f3e3d5ffd5b505050506040513d601f19601f8201168201806040525081019061040f9190610c39565b60405163cc56b2c560e01b81526001600160a01b0380831660048301525f602483018190529293507f0000000000000000000000000000000000000000000000000000000000000000169063cc56b2c590604401602060405180830381865afa15801561047e573d5f5f3e3d5ffd5b505050506040513d601f19601f820116820180604052508101906104a29190610c5b565b90506001600160a01b03808716908516116104c483878362ffffff8616610888565b979650505050505050565b6040516379bc57d560e01b81526001600160a01b03868116600483015284811660248301525f604483018190529182917f000000000000000000000000000000000000000000000000000000000000000016906379bc57d590606401602060405180830381865afa158015610546573d5f5f3e3d5ffd5b505050506040513d601f19601f8201168201806040525081019061056a9190610c39565b60405163cc56b2c560e01b81526001600160a01b0380831660048301525f602483018190529293507f0000000000000000000000000000000000000000000000000000000000000000169063cc56b2c590604401602060405180830381865afa1580156105d9573d5f5f3e3d5ffd5b505050506040513d601f19601f820116820180604052508101906105fd9190610c5b565b90506001600160a01b038089169087161161061f83898362ffffff86166109fa565b935085841015610642576040516342301c2360e01b815260040160405180910390fd5b6106576001600160a01b038a1633858b610985565b826001600160a01b031663022c0d9f826106715785610673565b5f5b8361067e575f610680565b865b6040516001600160e01b031960e085901b168152600481019290925260248201526001600160a01b0388166044820152608060648201525f608482015260a4015f604051808303815f87803b1580156106d7575f5ffd5b505af11580156106e9573d5f5f3e3d5ffd5b50505f805492509050806106fc83610c91565b909155506040517f38eee76fd911eabac79da7af16053e809be0e12c8637f156e77e1af309b99537906103609088908d908c908e908b90610ca9565b6040516379bc57d560e01b81526001600160a01b03848116600483015282811660248301525f604483018190529182917f000000000000000000000000000000000000000000000000000000000000000016906379bc57d590606401602060405180830381865afa1580156107af573d5f5f3e3d5ffd5b505050506040513d601f19601f820116820180604052508101906107d39190610c39565b60405163cc56b2c560e01b81526001600160a01b0380831660048301525f602483018190529293507f0000000000000000000000000000000000000000000000000000000000000000169063cc56b2c590604401602060405180830381865afa158015610842573d5f5f3e3d5ffd5b505050506040513d601f19601f820116820180604052508101906108669190610c5b565b90506001600160a01b03808716908516116104c483878362ffffff86166109fa565b5f5f5f866001600160a01b0316630902f1ac6040518163ffffffff1660e01b8152600401606060405180830381865afa1580156108c7573d5f5f3e3d5ffd5b505050506040513d601f19601f820116820180604052508101906108eb9190610d27565b50915091508461093a5761090184612710610d52565b61090b8784610d52565b6109159190610d6b565b61091f8783610d6b565b61092b90612710610d6b565b6109359190610d82565b61097a565b61094684612710610d52565b6109508783610d52565b61095a9190610d6b565b6109648784610d6b565b61097090612710610d6b565b61097a9190610d82565b6104c4906001610da1565b604080516001600160a01b0385811660248301528416604482015260648082018490528251808303909101815260849091019091526020810180517bffffffffffffffffffffffffffffffffffffffffffffffffffffffff166323b872dd60e01b1790526109f4908590610b18565b50505050565b5f5f5f866001600160a01b0316630902f1ac6040518163ffffffff1660e01b8152600401606060405180830381865afa158015610a39573d5f5f3e3d5ffd5b505050506040513d601f19601f82011682018060405250810190610a5d9190610d27565b509150915084610ac257610a7384612710610d52565b610a7d9087610d6b565b610a8982612710610d6b565b610a939190610da1565b610a9f85612710610d52565b610aa98885610d6b565b610ab39190610d6b565b610abd9190610d82565b6104c4565b610ace84612710610d52565b610ad89087610d6b565b610ae483612710610d6b565b610aee9190610da1565b610afa85612710610d52565b610b048884610d6b565b610b0e9190610d6b565b6104c49190610d82565b5f5f60205f8451602086015f885af180610b37576040513d5f823e3d81fd5b50505f513d91508115610b4e578060011415610b5b565b6001600160a01b0384163b155b156109f457604051635274afe760e01b81526001600160a01b038516600482015260240160405180910390fd5b6001600160a01b0381168114610b9c575f5ffd5b50565b5f5f5f5f5f60a08688031215610bb3575f5ffd5b8535610bbe81610b88565b9450602086013593506040860135610bd581610b88565b9250606086013591506080860135610bec81610b88565b809150509295509295909350565b5f5f5f60608486031215610c0c575f5ffd5b8335610c1781610b88565b9250602084013591506040840135610c2e81610b88565b809150509250925092565b5f60208284031215610c49575f5ffd5b8151610c5481610b88565b9392505050565b5f60208284031215610c6b575f5ffd5b815162ffffff81168114610c54575f5ffd5b634e487b7160e01b5f52601160045260245ffd5b5f60018201610ca257610ca2610c7d565b5060010190565b60e081525f610ccf60e08301600781526606578615f6170760cc1b602082015260400190565b8281036020840152610cf581600781526606578615f6170760cc1b602082015260400190565b6001600160a01b0398891660408501529688166060840152505092909416608083015260a082015260c0019190915290565b5f5f5f60608486031215610d39575f5ffd5b5050815160208301516040909301519094929350919050565b81810381811115610d6557610d65610c7d565b92915050565b8082028115828204841417610d6557610d65610c7d565b5f82610d9c57634e487b7160e01b5f52601260045260245ffd5b500490565b80820180821115610d6557610d65610c7d56fea2646970667358221220c7e6f84dd85773a9dc832a9078f579b2d792b47ff1223a0e36ae5ccdcb69b64864736f6c634300081d0033000000000000000000000000dcb28a97e6c95b5100eed0cc4003ce13ec0c33e0",
        "nonce": "0x94",
        "chainId": "0x14a34"
      },
      "additionalContracts": [],
      "isFixedGasLimit": false
    },
    {
      "hash": "0xefe8d7d3bea43e5718fe58eaf7b9e6fa51bdf169622f8b233fc84aeab8979562",
      "transactionType": "CALL",
      "contractName": "MockVelodromeFactory",
      "contractAddress": "0xdcb28a97e6c95b5100eed0cc4003ce13ec0c33e0",
      "function": "createPool(address,address,bool)",
      "arguments": [
        "0x3F2FF762e33bbA4c97df56BC180F8818bD11AbED",
        "0x0b925fc3466C9d7a4b1058EE95cA86b97690edbb",
        "false"
      ],
      "transaction": {
        "from": "0xdb90cdb64cff03f254e4015c4f705c3f3c834400",
        "to": "0xdcb28a97e6c95b5100eed0cc4003ce13ec0c33e0",
        "gas": "0x5dc05",
        "value": "0x0",
        "input": "0x36bf95a00000000000000000000000003f2ff762e33bba4c97df56bc180f8818bd11abed0000000000000000000000000b925fc3466c9d7a4b1058ee95ca86b97690edbb0000000000000000000000000000000000000000000000000000000000000000",
        "nonce": "0x95",
        "chainId": "0x14a34"
      },
      "additionalContracts": [
        {
          "transactionType": "CREATE2",
          "address": "0x735f568d1ff19db7e9fa6af7e569969f65c4f216",
          "initCode": "0x603d3d8160223d3973cb3ca2fa896b052ebe56eda6808bacec7f3ebc3760095155f3363d3d373d3d363d7f360894a13ba1a3210667c828492db98dca3e2076cc3735a920a3ca505d382bbc545af43d6000803e6038573d6000fd5b3d6000f3"
        }
      ],
      "isFixedGasLimit": false
    },
    {
      "hash": "0xeb4eae024aa91417c5cd90fa1adb690203e5a8b888f4e54ef31ab6a3dde8a1c6",
      "transactionType": "CALL",
      "contractName": null,
      "contractAddress": "0x3f2ff762e33bba4c97df56bc180f8818bd11abed",
      "function": "mint(address,uint256)",
      "arguments": [
        "0x735f568D1FF19Db7E9FA6Af7E569969f65c4f216",
        "238099773329015790776"
      ],
      "transaction": {
        "from": "0xdb90cdb64cff03f254e4015c4f705c3f3c834400",
        "to": "0x3f2ff762e33bba4c97df56bc180f8818bd11abed",
        "gas": "0x170a8",
        "value": "0x0",
        "input": "0x40c10f19000000000000000000000000735f568d1ff19db7e9fa6af7e569969f65c4f21600000000000000000000000000000000000000000000000ce84c525609035cb8",
        "nonce": "0x96",
        "chainId": "0x14a34"
      },
      "additionalContracts": [],
      "isFixedGasLimit": false
    },
    {
      "hash": "0x79dfac0227a446c896c695f1e7c20b0ee019df663f724ce601fe0c8fc3f3428b",
      "transactionType": "CALL",
      "contractName": "MockERC20",
      "contractAddress": "0x0b925fc3466c9d7a4b1058ee95ca86b97690edbb",
      "function": "mint(address,uint256)",
      "arguments": [
        "0x735f568D1FF19Db7E9FA6Af7E569969f65c4f216",
        "1000000000000"
      ],
      "transaction": {
        "from": "0xdb90cdb64cff03f254e4015c4f705c3f3c834400",
        "to": "0x0b925fc3466c9d7a4b1058ee95ca86b97690edbb",
        "gas": "0x18600",
        "value": "0x0",
        "input": "0x40c10f19000000000000000000000000735f568d1ff19db7e9fa6af7e569969f65c4f216000000000000000000000000000000000000000000000000000000e8d4a51000",
        "nonce": "0x97",
        "chainId": "0x14a34"
      },
      "additionalContracts": [],
      "isFixedGasLimit": false
    },
    {
      "hash": "0x63d2da717f4eed910bd67547e9db9e98dc52f4a5af3c82f490ac04465aceef10",
      "transactionType": "CALL",
      "contractName": null,
      "contractAddress": "0x735f568d1ff19db7e9fa6af7e569969f65c4f216",
      "function": "poke()",
      "arguments": [],
      "transaction": {
        "from": "0xdb90cdb64cff03f254e4015c4f705c3f3c834400",
        "to": "0x735f568d1ff19db7e9fa6af7e569969f65c4f216",
        "gas": "0x24340",
        "value": "0x0",
        "input": "0x18178358",
        "nonce": "0x98",
        "chainId": "0x14a34"
      },
      "additionalContracts": [],
      "isFixedGasLimit": false
    },
    {
      "hash": "0x258983b2e5e512c09a8b7d31bb5201be5c2b27b2d663d1373c34296122dd2b7e",
      "transactionType": "CALL",
      "contractName": "MockVelodromeFactory",
      "contractAddress": "0xdcb28a97e6c95b5100eed0cc4003ce13ec0c33e0",
      "function": "createPool(address,address,bool)",
      "arguments": [
        "0x4a3596b44Cc4A95f546799bfAf6ef04F918aED93",
        "0x0b925fc3466C9d7a4b1058EE95cA86b97690edbb",
        "false"
      ],
      "transaction": {
        "from": "0xdb90cdb64cff03f254e4015c4f705c3f3c834400",
        "to": "0xdcb28a97e6c95b5100eed0cc4003ce13ec0c33e0",
        "gas": "0x5dc05",
        "value": "0x0",
        "input": "0x36bf95a00000000000000000000000004a3596b44cc4a95f546799bfaf6ef04f918aed930000000000000000000000000b925fc3466c9d7a4b1058ee95ca86b97690edbb0000000000000000000000000000000000000000000000000000000000000000",
        "nonce": "0x99",
        "chainId": "0x14a34"
      },
      "additionalContracts": [
        {
          "transactionType": "CREATE2",
          "address": "0xa5025fac36cd8536b45ad9cabbdcfd764bf3f933",
          "initCode": "0x603d3d8160223d3973cb3ca2fa896b052ebe56eda6808bacec7f3ebc3760095155f3363d3d373d3d363d7f360894a13ba1a3210667c828492db98dca3e2076cc3735a920a3ca505d382bbc545af43d6000803e6038573d6000fd5b3d6000f3"
        }
      ],
      "isFixedGasLimit": false
    },
    {
      "hash": "0x53d8c2c7449532d27af30467e09f8ed1542d6c80b14a995df774edb115442bf2",
      "transactionType": "CALL",
      "contractName": "MockERC20",
      "contractAddress": "0x4a3596b44cc4a95f546799bfaf6ef04f918aed93",
      "function": "mint(address,uint256)",
      "arguments": [
        "0xA5025FAc36CD8536B45aD9cABBDCfd764bf3F933",
        "1000261128170120091551100"
      ],
      "transaction": {
        "from": "0xdb90cdb64cff03f254e4015c4f705c3f3c834400",
        "to": "0x4a3596b44cc4a95f546799bfaf6ef04f918aed93",
        "gas": "0x18669",
        "value": "0x0",
        "input": "0x40c10f19000000000000000000000000a5025fac36cd8536b45ad9cabbdcfd764bf3f93300000000000000000000000000000000000000000000d3d043b06c22d8d4457c",
        "nonce": "0x9a",
        "chainId": "0x14a34"
      },
      "additionalContracts": [],
      "isFixedGasLimit": false
    },
    {
      "hash": "0xf9ed7fa3bcd833a04ce10f70dfa2b9cbd0797b540f96f8db517cc597dc1f21f2",
      "transactionType": "CALL",
      "contractName": "MockERC20",
      "contractAddress": "0x0b925fc3466c9d7a4b1058ee95ca86b97690edbb",
      "function": "mint(address,uint256)",
      "arguments": [
        "0xA5025FAc36CD8536B45aD9cABBDCfd764bf3F933",
        "1000000000000"
      ],
      "transaction": {
        "from": "0xdb90cdb64cff03f254e4015c4f705c3f3c834400",
        "to": "0x0b925fc3466c9d7a4b1058ee95ca86b97690edbb",
        "gas": "0x11411",
        "value": "0x0",
        "input": "0x40c10f19000000000000000000000000a5025fac36cd8536b45ad9cabbdcfd764bf3f933000000000000000000000000000000000000000000000000000000e8d4a51000",
        "nonce": "0x9b",
        "chainId": "0x14a34"
      },
      "additionalContracts": [],
      "isFixedGasLimit": false
    },
    {
      "hash": "0x642719ef2f166b3f10cbcab9ed1ab84205a0487057489f3de61342493ccb0d5c",
      "transactionType": "CALL",
      "contractName": null,
      "contractAddress": "0xa5025fac36cd8536b45ad9cabbdcfd764bf3f933",
      "function": "poke()",
      "arguments": [],
      "transaction": {
        "from": "0xdb90cdb64cff03f254e4015c4f705c3f3c834400",
        "to": "0xa5025fac36cd8536b45ad9cabbdcfd764bf3f933",
        "gas": "0x24340",
        "value": "0x0",
        "input": "0x18178358",
        "nonce": "0x9c",
        "chainId": "0x14a34"
      },
      "additionalContracts": [],
      "isFixedGasLimit": false
    },
    {
      "hash": "0x6d9ea69ca282b2536a6b76e307f8b718b4be23a18d96721ccc1c3ed7bd64b7d8",
      "transactionType": "CALL",
      "contractName": "MockVelodromeFactory",
      "contractAddress": "0xdcb28a97e6c95b5100eed0cc4003ce13ec0c33e0",
      "function": "createPool(address,address,bool)",
      "arguments": [
        "0x31a96661af59056c772B930e5Cdf09B28cb6eC0e",
        "0x0b925fc3466C9d7a4b1058EE95cA86b97690edbb",
        "false"
      ],
      "transaction": {
        "from": "0xdb90cdb64cff03f254e4015c4f705c3f3c834400",
        "to": "0xdcb28a97e6c95b5100eed0cc4003ce13ec0c33e0",
        "gas": "0x5dc05",
        "value": "0x0",
        "input": "0x36bf95a000000000000000000000000031a96661af59056c772b930e5cdf09b28cb6ec0e0000000000000000000000000b925fc3466c9d7a4b1058ee95ca86b97690edbb0000000000000000000000000000000000000000000000000000000000000000",
        "nonce": "0x9d",
        "chainId": "0x14a34"
      },
      "additionalContracts": [
        {
          "transactionType": "CREATE2",
          "address": "0x4eeaf585a6264f2cd3147c52160f7ee725ed48ef",
          "initCode": "0x603d3d8160223d3973cb3ca2fa896b052ebe56eda6808bacec7f3ebc3760095155f3363d3d373d3d363d7f360894a13ba1a3210667c828492db98dca3e2076cc3735a920a3ca505d382bbc545af43d6000803e6038573d6000fd5b3d6000f3"
        }
      ],
      "isFixedGasLimit": false
    },
    {
      "hash": "0x9cc30c8156526909a0a84391410a9d64f4271b9797efac9f57fd702d7724fb44",
      "transactionType": "CALL",
      "contractName": "MockERC20",
      "contractAddress": "0x31a96661af59056c772b930e5cdf09b28cb6ec0e",
      "function": "mint(address,uint256)",
      "arguments": [
        "0x4EEaf585A6264F2Cd3147C52160F7EE725eD48Ef",
        "8793679525253864734"
      ],
      "transaction": {
        "from": "0xdb90cdb64cff03f254e4015c4f705c3f3c834400",
        "to": "0x31a96661af59056c772b930e5cdf09b28cb6ec0e",
        "gas": "0x18646",
        "value": "0x0",
        "input": "0x40c10f190000000000000000000000004eeaf585a6264f2cd3147c52160f7ee725ed48ef0000000000000000000000000000000000000000000000007a096ceff361dd1e",
        "nonce": "0x9e",
        "chainId": "0x14a34"
      },
      "additionalContracts": [],
      "isFixedGasLimit": false
    },
    {
      "hash": "0x652c0ee42f38a1caf5bde32ab5ff0f0d5c189b23fd3e0c6a0ec690823d8986b9",
      "transactionType": "CALL",
      "contractName": "MockERC20",
      "contractAddress": "0x0b925fc3466c9d7a4b1058ee95ca86b97690edbb",
      "function": "mint(address,uint256)",
      "arguments": [
        "0x4EEaf585A6264F2Cd3147C52160F7EE725eD48Ef",
        "1000000000000"
      ],
      "transaction": {
        "from": "0xdb90cdb64cff03f254e4015c4f705c3f3c834400",
        "to": "0x0b925fc3466c9d7a4b1058ee95ca86b97690edbb",
        "gas": "0x11411",
        "value": "0x0",
        "input": "0x40c10f190000000000000000000000004eeaf585a6264f2cd3147c52160f7ee725ed48ef000000000000000000000000000000000000000000000000000000e8d4a51000",
        "nonce": "0x9f",
        "chainId": "0x14a34"
      },
      "additionalContracts": [],
      "isFixedGasLimit": false
    },
    {
      "hash": "0xb4e6a07b151b4b87a1c6c3df0f7d2a4628618da81edb31a4700eae34bbaa30e6",
      "transactionType": "CALL",
      "contractName": null,
      "contractAddress": "0x4eeaf585a6264f2cd3147c52160f7ee725ed48ef",
      "function": "poke()",
      "arguments": [],
      "transaction": {
        "from": "0xdb90cdb64cff03f254e4015c4f705c3f3c834400",
        "to": "0x4eeaf585a6264f2cd3147c52160f7ee725ed48ef",
        "gas": "0x24340",
        "value": "0x0",
        "input": "0x18178358",
        "nonce": "0xa0",
        "chainId": "0x14a34"
      },
      "additionalContracts": [],
      "isFixedGasLimit": false
    }
  ],
  "receipts": [
    {
      "status": "0x1",
      "cumulativeGasUsed": "0x137ebb",
      "logs": [],
      "logsBloom": "0x00000000000000000000000000000000000000000000000000000000000000000000000000000000000000000000000000000000000000000000000000000000000000000000000000000000000000000000000000000000000000000000000000000000000000000000000000000000000000000000000000000000000000000000000000000000000000000000000000000000000000000000000000000000000000000000000000000000000000000000000000000000000000000000000000000000000000000000000000000000000000000000000000000000000000000000000000000000000000000000000000000000000000000000000000000000",
      "type": "0x2",
      "transactionHash": "0xcfaef7384a283d86c2db30b64b3ca7fbe4a10b3066ab7c75f6a9996b1d2e4e92",
      "transactionIndex": "0x2",
      "blockHash": "0x01052740fc2cc41995b6fbeb7ec03b39dc1ed85878099ac755bfa863efba2982",
      "blockNumber": "0x1c932eb",
      "gasUsed": "0x11982e",
      "effectiveGasPrice": "0x9896c3",
      "from": "0xdb90cdb64cff03f254e4015c4f705c3f3c834400",
      "to": null,
      "contractAddress": "0xdcb28a97e6c95b5100eed0cc4003ce13ec0c33e0",
      "l1BaseFeeScalar": "0x44d",
      "l1BlobBaseFee": "0x1",
      "l1BlobBaseFeeScalar": "0xa118b",
      "l1Fee": "0xc3b45eb33",
      "l1GasPrice": "0x408701fa",
      "l1GasUsed": "0xac2a"
    },
    {
      "status": "0x1",
      "cumulativeGasUsed": "0x200ea2",
      "logs": [],
      "logsBloom": "0x00000000000000000000000000000000000000000000000000000000000000000000000000000000000000000000000000000000000000000000000000000000000000000000000000000000000000000000000000000000000000000000000000000000000000000000000000000000000000000000000000000000000000000000000000000000000000000000000000000000000000000000000000000000000000000000000000000000000000000000000000000000000000000000000000000000000000000000000000000000000000000000000000000000000000000000000000000000000000000000000000000000000000000000000000000000",
      "type": "0x2",
      "transactionHash": "0x27e49b677922c4d7dcad5a58da042d60f80e68ea2c411c87ad1629c73239f985",
      "transactionIndex": "0x3",
      "blockHash": "0x01052740fc2cc41995b6fbeb7ec03b39dc1ed85878099ac755bfa863efba2982",
      "blockNumber": "0x1c932eb",
      "gasUsed": "0xc8fe7",
      "effectiveGasPrice": "0x9896c3",
      "from": "0xdb90cdb64cff03f254e4015c4f705c3f3c834400",
      "to": null,
      "contractAddress": "0xe4f8c9904a79ebd88ff73ed3f86a3cfd1b489edf",
      "l1BaseFeeScalar": "0x44d",
      "l1BlobBaseFee": "0x1",
      "l1BlobBaseFeeScalar": "0xa118b",
      "l1Fee": "0x77fe02739",
      "l1GasPrice": "0x408701fa",
      "l1GasUsed": "0x698f"
    },
    {
      "status": "0x1",
      "cumulativeGasUsed": "0x244ca0",
      "logs": [],
      "logsBloom": "0x00000000000000000000000000000000000000000000000000000000000000000000000000000000000000000000000000000000000000000000000000000000000000000000000000000000000000000000000000000000000000000000000000000000000000000000000000000000000000000000000000000000000000000000000000000000000000000000000000000000000000000000000000000000000000000000000000000000000000000000000000000000000000000000000000000000000000000000000000000000000000000000000000000000000000000000000000000000000000000000000000000000000000000000000000000000",
      "type": "0x2",
      "transactionHash": "0xefe8d7d3bea43e5718fe58eaf7b9e6fa51bdf169622f8b233fc84aeab8979562",
      "transactionIndex": "0x4",
      "blockHash": "0x01052740fc2cc41995b6fbeb7ec03b39dc1ed85878099ac755bfa863efba2982",
      "blockNumber": "0x1c932eb",
      "gasUsed": "0x43dfe",
      "effectiveGasPrice": "0x9896c3",
      "from": "0xdb90cdb64cff03f254e4015c4f705c3f3c834400",
      "to": "0xdcb28a97e6c95b5100eed0cc4003ce13ec0c33e0",
      "contractAddress": null,
      "l1BaseFeeScalar": "0x44d",
      "l1BlobBaseFee": "0x1",
      "l1BlobBaseFeeScalar": "0xa118b",
      "l1Fee": "0x78d87ec2",
      "l1GasPrice": "0x408701fa",
      "l1GasUsed": "0x6a4"
    },
    {
      "status": "0x1",
      "cumulativeGasUsed": "0x255787",
      "logs": [
        {
          "address": "0x3f2ff762e33bba4c97df56bc180f8818bd11abed",
          "topics": [
            "0xddf252ad1be2c89b69c2b068fc378daa952ba7f163c4a11628f55a4df523b3ef",
            "0x0000000000000000000000000000000000000000000000000000000000000000",
            "0x000000000000000000000000735f568d1ff19db7e9fa6af7e569969f65c4f216"
          ],
          "data": "0x00000000000000000000000000000000000000000000000ce84c525609035cb8",
          "blockHash": "0x01052740fc2cc41995b6fbeb7ec03b39dc1ed85878099ac755bfa863efba2982",
          "blockNumber": "0x1c932eb",
          "blockTimestamp": "0x68a5c4b6",
          "transactionHash": "0xeb4eae024aa91417c5cd90fa1adb690203e5a8b888f4e54ef31ab6a3dde8a1c6",
          "transactionIndex": "0x5",
          "logIndex": "0x3",
          "removed": false
        }
      ],
      "logsBloom": "0x00000080000000000000000000000000000000000000000000000000000000000000000000000000000000000000000000000000000000000000000000000000000000000000000000000008000000000000000000000000000000000000020000000000020000000000000000000800000000000000000000000010000000000000000000000000000000000000000000000000000000000000000000000000000000000000000000000000000000000000040000000040000000000000000000000002000000000000001000000000000000000000000000000000000020000000000000000000000000000000000000000000000000000040000000000000",
      "type": "0x2",
      "transactionHash": "0xeb4eae024aa91417c5cd90fa1adb690203e5a8b888f4e54ef31ab6a3dde8a1c6",
      "transactionIndex": "0x5",
      "blockHash": "0x01052740fc2cc41995b6fbeb7ec03b39dc1ed85878099ac755bfa863efba2982",
      "blockNumber": "0x1c932eb",
      "gasUsed": "0x10ae7",
      "effectiveGasPrice": "0x9896c3",
      "from": "0xdb90cdb64cff03f254e4015c4f705c3f3c834400",
      "to": "0x3f2ff762e33bba4c97df56bc180f8818bd11abed",
      "contractAddress": null,
      "l1BaseFeeScalar": "0x44d",
      "l1BlobBaseFee": "0x1",
      "l1BlobBaseFeeScalar": "0xa118b",
      "l1Fee": "0x71abe28f",
      "l1GasPrice": "0x408701fa",
      "l1GasUsed": "0x640"
    },
    {
      "status": "0x1",
      "cumulativeGasUsed": "0x266232",
      "logs": [
        {
          "address": "0x0b925fc3466c9d7a4b1058ee95ca86b97690edbb",
          "topics": [
            "0xddf252ad1be2c89b69c2b068fc378daa952ba7f163c4a11628f55a4df523b3ef",
            "0x0000000000000000000000000000000000000000000000000000000000000000",
            "0x000000000000000000000000735f568d1ff19db7e9fa6af7e569969f65c4f216"
          ],
          "data": "0x000000000000000000000000000000000000000000000000000000e8d4a51000",
          "blockHash": "0x01052740fc2cc41995b6fbeb7ec03b39dc1ed85878099ac755bfa863efba2982",
          "blockNumber": "0x1c932eb",
          "blockTimestamp": "0x68a5c4b6",
          "transactionHash": "0x79dfac0227a446c896c695f1e7c20b0ee019df663f724ce601fe0c8fc3f3428b",
          "transactionIndex": "0x6",
          "logIndex": "0x4",
          "removed": false
        }
      ],
      "logsBloom": "0x00000000002000000000000000000000000000000000000000000000000000000000000000000000000000000000000000000000000000000000000000000000000000000000000000000408000000000000000000000000000000000000020000000000020000000000000000000800000000000000000000000010000000000000000000000000000000000000000000000000000000000000000000000000000000000000000000000000000000000000000000000040000000000000000000000002000000000000080000000000000000000000000000000000000020000000000000000000000000000000000000000000000000000040000000000000",
      "type": "0x2",
      "transactionHash": "0x79dfac0227a446c896c695f1e7c20b0ee019df663f724ce601fe0c8fc3f3428b",
      "transactionIndex": "0x6",
      "blockHash": "0x01052740fc2cc41995b6fbeb7ec03b39dc1ed85878099ac755bfa863efba2982",
      "blockNumber": "0x1c932eb",
      "gasUsed": "0x10aab",
      "effectiveGasPrice": "0x9896c3",
      "from": "0xdb90cdb64cff03f254e4015c4f705c3f3c834400",
      "to": "0x0b925fc3466c9d7a4b1058ee95ca86b97690edbb",
      "contractAddress": null,
      "l1BaseFeeScalar": "0x44d",
      "l1BlobBaseFee": "0x1",
      "l1BlobBaseFeeScalar": "0xa118b",
      "l1Fee": "0x71abe28f",
      "l1GasPrice": "0x408701fa",
      "l1GasUsed": "0x640"
    },
    {
      "status": "0x1",
      "cumulativeGasUsed": "0x280591",
      "logs": [],
      "logsBloom": "0x00000000000000000000000000000000000000000000000000000000000000000000000000000000000000000000000000000000000000000000000000000000000000000000000000000000000000000000000000000000000000000000000000000000000000000000000000000000000000000000000000000000000000000000000000000000000000000000000000000000000000000000000000000000000000000000000000000000000000000000000000000000000000000000000000000000000000000000000000000000000000000000000000000000000000000000000000000000000000000000000000000000000000000000000000000000",
      "type": "0x2",
      "transactionHash": "0x63d2da717f4eed910bd67547e9db9e98dc52f4a5af3c82f490ac04465aceef10",
      "transactionIndex": "0x7",
      "blockHash": "0x01052740fc2cc41995b6fbeb7ec03b39dc1ed85878099ac755bfa863efba2982",
      "blockNumber": "0x1c932eb",
      "gasUsed": "0x1a35f",
      "effectiveGasPrice": "0x9896c3",
      "from": "0xdb90cdb64cff03f254e4015c4f705c3f3c834400",
      "to": "0x735f568d1ff19db7e9fa6af7e569969f65c4f216",
      "contractAddress": null,
      "l1BaseFeeScalar": "0x44d",
      "l1BlobBaseFee": "0x1",
      "l1BlobBaseFeeScalar": "0xa118b",
      "l1Fee": "0x71abe28f",
      "l1GasPrice": "0x408701fa",
      "l1GasUsed": "0x640"
    },
    {
      "status": "0x1",
      "cumulativeGasUsed": "0x2c438f",
      "logs": [],
      "logsBloom": "0x00000000000000000000000000000000000000000000000000000000000000000000000000000000000000000000000000000000000000000000000000000000000000000000000000000000000000000000000000000000000000000000000000000000000000000000000000000000000000000000000000000000000000000000000000000000000000000000000000000000000000000000000000000000000000000000000000000000000000000000000000000000000000000000000000000000000000000000000000000000000000000000000000000000000000000000000000000000000000000000000000000000000000000000000000000000",
      "type": "0x2",
      "transactionHash": "0x258983b2e5e512c09a8b7d31bb5201be5c2b27b2d663d1373c34296122dd2b7e",
      "transactionIndex": "0x8",
      "blockHash": "0x01052740fc2cc41995b6fbeb7ec03b39dc1ed85878099ac755bfa863efba2982",
      "blockNumber": "0x1c932eb",
      "gasUsed": "0x43dfe",
      "effectiveGasPrice": "0x9896c3",
      "from": "0xdb90cdb64cff03f254e4015c4f705c3f3c834400",
      "to": "0xdcb28a97e6c95b5100eed0cc4003ce13ec0c33e0",
      "contractAddress": null,
      "l1BaseFeeScalar": "0x44d",
      "l1BlobBaseFee": "0x1",
      "l1BlobBaseFeeScalar": "0xa118b",
      "l1Fee": "0x78d87ec2",
      "l1GasPrice": "0x408701fa",
      "l1GasUsed": "0x6a4"
    },
    {
      "status": "0x1",
      "cumulativeGasUsed": "0x2d4e82",
      "logs": [
        {
          "address": "0x4a3596b44cc4a95f546799bfaf6ef04f918aed93",
          "topics": [
            "0xddf252ad1be2c89b69c2b068fc378daa952ba7f163c4a11628f55a4df523b3ef",
            "0x0000000000000000000000000000000000000000000000000000000000000000",
            "0x000000000000000000000000a5025fac36cd8536b45ad9cabbdcfd764bf3f933"
          ],
          "data": "0x00000000000000000000000000000000000000000000d3d043b06c22d8d4457c",
          "blockHash": "0x01052740fc2cc41995b6fbeb7ec03b39dc1ed85878099ac755bfa863efba2982",
          "blockNumber": "0x1c932eb",
          "blockTimestamp": "0x68a5c4b6",
          "transactionHash": "0x53d8c2c7449532d27af30467e09f8ed1542d6c80b14a995df774edb115442bf2",
          "transactionIndex": "0x9",
          "logIndex": "0x5",
          "removed": false
        }
      ],
      "logsBloom": "0x00000000000000000800000000000000000000000000000000000000000000000000000000000000000000000000000000000000080000000000000000000000004000000000000000000008000000010000800000000000000000000000000000000000020000000000000000000800000000000000000000000010000000000000000000000000000000000000000000000000000000000000000000000000000000000000000000000000000000000000000000000000000000000000000000000002000000000000000000000000000000000000000000000000000020000000000000000000000000100000000000000000000000000000000000000000",
      "type": "0x2",
      "transactionHash": "0x53d8c2c7449532d27af30467e09f8ed1542d6c80b14a995df774edb115442bf2",
      "transactionIndex": "0x9",
      "blockHash": "0x01052740fc2cc41995b6fbeb7ec03b39dc1ed85878099ac755bfa863efba2982",
      "blockNumber": "0x1c932eb",
      "gasUsed": "0x10af3",
      "effectiveGasPrice": "0x9896c3",
      "from": "0xdb90cdb64cff03f254e4015c4f705c3f3c834400",
      "to": "0x4a3596b44cc4a95f546799bfaf6ef04f918aed93",
      "contractAddress": null,
      "l1BaseFeeScalar": "0x44d",
      "l1BlobBaseFee": "0x1",
      "l1BlobBaseFeeScalar": "0xa118b",
      "l1Fee": "0x71abe28f",
      "l1GasPrice": "0x408701fa",
      "l1GasUsed": "0x640"
    },
    {
      "status": "0x1",
      "cumulativeGasUsed": "0x336166",
      "logs": [
        {
          "address": "0x0b925fc3466c9d7a4b1058ee95ca86b97690edbb",
          "topics": [
            "0xddf252ad1be2c89b69c2b068fc378daa952ba7f163c4a11628f55a4df523b3ef",
            "0x0000000000000000000000000000000000000000000000000000000000000000",
            "0x000000000000000000000000a5025fac36cd8536b45ad9cabbdcfd764bf3f933"
          ],
          "data": "0x000000000000000000000000000000000000000000000000000000e8d4a51000",
          "blockHash": "0x01052740fc2cc41995b6fbeb7ec03b39dc1ed85878099ac755bfa863efba2982",
          "blockNumber": "0x1c932eb",
          "blockTimestamp": "0x68a5c4b6",
          "transactionHash": "0xf9ed7fa3bcd833a04ce10f70dfa2b9cbd0797b540f96f8db517cc597dc1f21f2",
          "transactionIndex": "0xd",
          "logIndex": "0x1e",
          "removed": false
        }
      ],
      "logsBloom": "0x00000000002000000800000000000000000000000000000000000000000000000000000000000000000000000000000000000000080000000000000000000000004000000000000000000408000000000000000000000000000000000000000000000000020000000000000000000800000000000000000000000010000000000000000000000000000000000000000000000000000000000000000000000000000000000000000000000000000000000000000000000000000000000000000000000002000000000000080000000000000000000000000000000000000020000000000000000000000000000000000000000000000000000000000000000000",
      "type": "0x2",
      "transactionHash": "0xf9ed7fa3bcd833a04ce10f70dfa2b9cbd0797b540f96f8db517cc597dc1f21f2",
      "transactionIndex": "0xd",
      "blockHash": "0x01052740fc2cc41995b6fbeb7ec03b39dc1ed85878099ac755bfa863efba2982",
      "blockNumber": "0x1c932eb",
      "gasUsed": "0xc7df",
      "effectiveGasPrice": "0x9896c3",
      "from": "0xdb90cdb64cff03f254e4015c4f705c3f3c834400",
      "to": "0x0b925fc3466c9d7a4b1058ee95ca86b97690edbb",
      "contractAddress": null,
      "l1BaseFeeScalar": "0x44d",
      "l1BlobBaseFee": "0x1",
      "l1BlobBaseFeeScalar": "0xa118b",
      "l1Fee": "0x71abe28f",
      "l1GasPrice": "0x408701fa",
      "l1GasUsed": "0x640"
    },
    {
      "status": "0x1",
      "cumulativeGasUsed": "0x3504c5",
      "logs": [],
      "logsBloom": "0x00000000000000000000000000000000000000000000000000000000000000000000000000000000000000000000000000000000000000000000000000000000000000000000000000000000000000000000000000000000000000000000000000000000000000000000000000000000000000000000000000000000000000000000000000000000000000000000000000000000000000000000000000000000000000000000000000000000000000000000000000000000000000000000000000000000000000000000000000000000000000000000000000000000000000000000000000000000000000000000000000000000000000000000000000000000",
      "type": "0x2",
      "transactionHash": "0x642719ef2f166b3f10cbcab9ed1ab84205a0487057489f3de61342493ccb0d5c",
      "transactionIndex": "0xe",
      "blockHash": "0x01052740fc2cc41995b6fbeb7ec03b39dc1ed85878099ac755bfa863efba2982",
      "blockNumber": "0x1c932eb",
      "gasUsed": "0x1a35f",
      "effectiveGasPrice": "0x9896c3",
      "from": "0xdb90cdb64cff03f254e4015c4f705c3f3c834400",
      "to": "0xa5025fac36cd8536b45ad9cabbdcfd764bf3f933",
      "contractAddress": null,
      "l1BaseFeeScalar": "0x44d",
      "l1BlobBaseFee": "0x1",
      "l1BlobBaseFeeScalar": "0xa118b",
      "l1Fee": "0x71abe28f",
      "l1GasPrice": "0x408701fa",
      "l1GasUsed": "0x640"
    },
    {
      "status": "0x1",
      "cumulativeGasUsed": "0x3d7115",
      "logs": [],
      "logsBloom": "0x00000000000000000000000000000000000000000000000000000000000000000000000000000000000000000000000000000000000000000000000000000000000000000000000000000000000000000000000000000000000000000000000000000000000000000000000000000000000000000000000000000000000000000000000000000000000000000000000000000000000000000000000000000000000000000000000000000000000000000000000000000000000000000000000000000000000000000000000000000000000000000000000000000000000000000000000000000000000000000000000000000000000000000000000000000000",
      "type": "0x2",
      "transactionHash": "0x6d9ea69ca282b2536a6b76e307f8b718b4be23a18d96721ccc1c3ed7bd64b7d8",
      "transactionIndex": "0x13",
      "blockHash": "0x01052740fc2cc41995b6fbeb7ec03b39dc1ed85878099ac755bfa863efba2982",
      "blockNumber": "0x1c932eb",
      "gasUsed": "0x43dfe",
      "effectiveGasPrice": "0x9896c3",
      "from": "0xdb90cdb64cff03f254e4015c4f705c3f3c834400",
      "to": "0xdcb28a97e6c95b5100eed0cc4003ce13ec0c33e0",
      "contractAddress": null,
      "l1BaseFeeScalar": "0x44d",
      "l1BlobBaseFee": "0x1",
      "l1BlobBaseFeeScalar": "0xa118b",
      "l1Fee": "0x78d87ec2",
      "l1GasPrice": "0x408701fa",
      "l1GasUsed": "0x6a4"
    },
    {
      "status": "0x1",
      "cumulativeGasUsed": "0x3e7bf0",
      "logs": [
        {
          "address": "0x31a96661af59056c772b930e5cdf09b28cb6ec0e",
          "topics": [
            "0xddf252ad1be2c89b69c2b068fc378daa952ba7f163c4a11628f55a4df523b3ef",
            "0x0000000000000000000000000000000000000000000000000000000000000000",
            "0x0000000000000000000000004eeaf585a6264f2cd3147c52160f7ee725ed48ef"
          ],
          "data": "0x0000000000000000000000000000000000000000000000007a096ceff361dd1e",
          "blockHash": "0x01052740fc2cc41995b6fbeb7ec03b39dc1ed85878099ac755bfa863efba2982",
          "blockNumber": "0x1c932eb",
          "blockTimestamp": "0x68a5c4b6",
          "transactionHash": "0x9cc30c8156526909a0a84391410a9d64f4271b9797efac9f57fd702d7724fb44",
          "transactionIndex": "0x14",
          "logIndex": "0x25",
          "removed": false
        }
      ],
      "logsBloom": "0x00004000000000000000010000000000000000000000000000000000000000000000000000000000000000004000000000000000000000000000000000000000000000000000000000000008000000000000000000000000000000000000000000000000020000000000000000000800000000000000000000000010000000000040000000000000000000000000000000000000080000000000000000000000000000000000000000000000000000000000000000000000000000000000400000000002000000000000000000000000000000000000000000000000000020000000000000000000000000000000000000000000000000000000000000000000",
      "type": "0x2",
      "transactionHash": "0x9cc30c8156526909a0a84391410a9d64f4271b9797efac9f57fd702d7724fb44",
      "transactionIndex": "0x14",
      "blockHash": "0x01052740fc2cc41995b6fbeb7ec03b39dc1ed85878099ac755bfa863efba2982",
      "blockNumber": "0x1c932eb",
      "gasUsed": "0x10adb",
      "effectiveGasPrice": "0x9896c3",
      "from": "0xdb90cdb64cff03f254e4015c4f705c3f3c834400",
      "to": "0x31a96661af59056c772b930e5cdf09b28cb6ec0e",
      "contractAddress": null,
      "l1BaseFeeScalar": "0x44d",
      "l1BlobBaseFee": "0x1",
      "l1BlobBaseFeeScalar": "0xa118b",
      "l1Fee": "0x71abe28f",
      "l1GasPrice": "0x408701fa",
      "l1GasUsed": "0x640"
    },
    {
      "status": "0x1",
      "cumulativeGasUsed": "0x3f43cf",
      "logs": [
        {
          "address": "0x0b925fc3466c9d7a4b1058ee95ca86b97690edbb",
          "topics": [
            "0xddf252ad1be2c89b69c2b068fc378daa952ba7f163c4a11628f55a4df523b3ef",
            "0x0000000000000000000000000000000000000000000000000000000000000000",
            "0x0000000000000000000000004eeaf585a6264f2cd3147c52160f7ee725ed48ef"
          ],
          "data": "0x000000000000000000000000000000000000000000000000000000e8d4a51000",
          "blockHash": "0x01052740fc2cc41995b6fbeb7ec03b39dc1ed85878099ac755bfa863efba2982",
          "blockNumber": "0x1c932eb",
          "blockTimestamp": "0x68a5c4b6",
          "transactionHash": "0x652c0ee42f38a1caf5bde32ab5ff0f0d5c189b23fd3e0c6a0ec690823d8986b9",
          "transactionIndex": "0x15",
          "logIndex": "0x26",
          "removed": false
        }
      ],
      "logsBloom": "0x00000000002000000000000000000000000000000000000000000000000000000000000000000000000000004000000000000000000000000000000000000000000000000000000000000408000000000000000000000000000000000000000000000000020000000000000000000800000000000000000000000010000000000040000000000000000000000000000000000000080000000000000000000000000000000000000000000000000000000000000000000000000000000000000000000002000000000000080000000000000000000000000000000000000020000000000000000000000000000000000000000000000000000000000000000000",
      "type": "0x2",
      "transactionHash": "0x652c0ee42f38a1caf5bde32ab5ff0f0d5c189b23fd3e0c6a0ec690823d8986b9",
      "transactionIndex": "0x15",
      "blockHash": "0x01052740fc2cc41995b6fbeb7ec03b39dc1ed85878099ac755bfa863efba2982",
      "blockNumber": "0x1c932eb",
      "gasUsed": "0xc7df",
      "effectiveGasPrice": "0x9896c3",
      "from": "0xdb90cdb64cff03f254e4015c4f705c3f3c834400",
      "to": "0x0b925fc3466c9d7a4b1058ee95ca86b97690edbb",
      "contractAddress": null,
      "l1BaseFeeScalar": "0x44d",
      "l1BlobBaseFee": "0x1",
      "l1BlobBaseFeeScalar": "0xa118b",
      "l1Fee": "0x71abe28f",
      "l1GasPrice": "0x408701fa",
      "l1GasUsed": "0x640"
    },
    {
      "status": "0x1",
      "cumulativeGasUsed": "0x40e72e",
      "logs": [],
      "logsBloom": "0x00000000000000000000000000000000000000000000000000000000000000000000000000000000000000000000000000000000000000000000000000000000000000000000000000000000000000000000000000000000000000000000000000000000000000000000000000000000000000000000000000000000000000000000000000000000000000000000000000000000000000000000000000000000000000000000000000000000000000000000000000000000000000000000000000000000000000000000000000000000000000000000000000000000000000000000000000000000000000000000000000000000000000000000000000000000",
      "type": "0x2",
      "transactionHash": "0xb4e6a07b151b4b87a1c6c3df0f7d2a4628618da81edb31a4700eae34bbaa30e6",
      "transactionIndex": "0x16",
      "blockHash": "0x01052740fc2cc41995b6fbeb7ec03b39dc1ed85878099ac755bfa863efba2982",
      "blockNumber": "0x1c932eb",
      "gasUsed": "0x1a35f",
      "effectiveGasPrice": "0x9896c3",
      "from": "0xdb90cdb64cff03f254e4015c4f705c3f3c834400",
      "to": "0x4eeaf585a6264f2cd3147c52160f7ee725ed48ef",
      "contractAddress": null,
      "l1BaseFeeScalar": "0x44d",
      "l1BlobBaseFee": "0x1",
      "l1BlobBaseFeeScalar": "0xa118b",
      "l1Fee": "0x71abe28f",
      "l1GasPrice": "0x408701fa",
      "l1GasUsed": "0x640"
    }
  ],
  "libraries": [],
  "pending": [],
  "returns": {},
  "timestamp": 1755694323132,
  "chain": 84532,
  "commit": "5cd64110"
}